:100000000C9462000C942A0A0C94030A0C948A0043
:100010000C948A000C948A000C948A000C948A0038
:100020000C948A000C948A000C948A000C948A0028
:100030000C948A000C948A000C948A000C948A0018
:100040000C9498000C948A000C948A000C948A00FA
:100050000C948A000C948A000C948A000C948A00F8
:100060000C948A000C948A000000000024002700F1
:100070002A0000000000250028002B0000000000DE
:1000800023002600290004040404040404040202DA
:100090000202020203030303030301020408102007
:1000A0004080010204081020010204081020000012
:1000B0000008000201000003040700000000000027
:1000C00000000B0B11241FBECFEFD8E0DEBFCDBF69
:1000D00012E0A0E0B1E0E6EBF1E202C005900D9283
:1000E000A033B107D9F724E0A0E3B2E001C01D922C
:1000F000AD32B207E1F710E0C2E6D0E004C02197CC
:10010000FE010E94D310C136D107C9F70E94DB0C53
:100110000C94D9100C9400002FB7F894609134021D
:100120007091350280913602909137022FBF089569
:100130001F920F920FB60F9211242F933F938F931C
:100140009F93AF93BF938091340290913502A09119
:100150003602B09137023091330223E0230F2D375E
:1001600020F40196A11DB11D05C026E8230F0296BB
:10017000A11DB11D20933302809334029093350268
:10018000A0933602B09337028091380290913902E1
:10019000A0913A02B0913B020196A11DB11D80933E
:1001A000380290933902A0933A02B0933B02BF9178
:1001B000AF919F918F913F912F910F900FBE0F9014
:1001C0001F9018952F923F924F925F926F927F925D
:1001D0008F929F92AF92BF92CF92DF92EF92FF9257
:1001E0000F931F93CF93DF9300D0CDB7DEB78C0171
:1001F00049832A83660F771FF801EA5AFF4FE08090
:10020000F180EE0CFF1CF801CF01801B910B8E15C5
:100210009F0514F41192F8CF8981F801E60FF71FBA
:1002200081838A818083580184E5A80EB11C60E037
:10023000F50180810E947A0AE00EF11E4801F2E584
:100240008F0E911C380180E5680E711CC701801B60
:10025000910B1816190624F5F701C2907F01F401DD
:100260003080F301208087E0482E512CD12CB6013C
:10027000042C02C0759567950A94E2F761707727A0
:10028000822D0E947A0A61E0832D0E947A0A60E042
:10029000832D0E947A0AF1E04F1A510840F7D6CF19
:1002A00061E0F50180810F900F90DF91CF911F9158
:1002B0000F91FF90EF90DF90CF90BF90AF909F9005
:1002C0008F907F906F905F904F903F902F900C9405
:1002D0007A0ACF92DF92EF92FF920F931F93CF9300
:1002E000DF938C017B016B0183E0CC0CDD1C8A95D4
:1002F000E1F7C1E0D0E0FE01EC0DFD1DE00FF11FC4
:10030000178620E04C2FB701C8010E94E200219619
:10031000C930D10581F7DF91CF911F910F91FF90E7
:10032000EF90DF90CF9008952F923F924F925F927F
:100330006F927F928F929F92AF92BF92CF92DF92F5
:10034000EF92FF920F931F93CF93DF93CDB7DEB75A
:1003500028970FB6F894DEBF0FBECDBFB02EA22EE9
:10036000932E842E752E662E572E970143E0220F72
:10037000331F4A95E1F72A573F4FA901480F591FEC
:1003800058874F8344244394C12CD12CFC01E4535F
:10039000FF4FFC83EB839C012A583F4F3E832D8304
:1003A0002B2D312F4A2D592D682D772D862D952DEA
:1003B0000C2D0E94A310212C312C422F50E05A8387
:1003C0004983F7FC2DC0EB81FC8180819181E81687
:1003D000F90634F580E890E0022C02C095958795E7
:1003E0000A94E2F729813A81022C02C035952795BB
:1003F0000A94E2F720FF05C0EF81F8859081892BF0
:1004000005C08095EF81F885908189238083EF81F5
:10041000F8852081442DB7018D819E810E94E200E4
:10042000FFEF2F1A3F0A28E02216310451F638E078
:10043000C30ED11C4F8158854F5F5F4F58874F8344
:10044000439459E04512ACCF28960FB6F894DEBF1E
:100450000FBECDBFDF91CF911F910F91FF90EF9015
:10046000DF90CF90BF90AF909F908F907F906F90D4
:100470005F904F903F902F9008952F923F924F9210
:100480005F926F927F928F929F92AF92BF92CF9224
:10049000DF92EF92FF920F931F93CF93DF93CDB72D
:1004A000DEB727970FB6F894DEBF0FBECDBF5C0155
:1004B000DC01AC5ABF4FFC01EE5AFF4F8D919C916D
:1004C000119797FF0AC0CC9611969C938E938081CA
:1004D0009181019791838083F1CF8D919C911197A8
:1004E0008C33910554F0CC9711969C938E93808118
:1004F0009181019691838083F0CF20813181121602
:1005000013062CF0245F3F4F31832083F6CF4081C8
:1005100051814D3051052CF04C505109518340838D
:10052000F6CF15012EE5220E311CD1011C92119639
:100530001C92119712961C92129713961C92139765
:1005400014961C92149715961C92159716961C9249
:10055000169717961C92F501EA59FF4FFD83EC831D
:1005600010821182128213821482158216821782DF
:10057000950122593F4FD9011C9211961C92119757
:1005800012961C92129713961C92139714961C9213
:10059000149715961C92159716961C9216971796F7
:1005A0001C927097108211826CE66283138214820F
:1005B0001582168217824C30510551F4B5016A5BE1
:1005C0007F4FDB016D917C91681779076CF03FC01C
:1005D0004130510599F4B5016A5B7F4FDB016D91A4
:1005E0007C91681779076CF0108211826CE6628347
:1005F00013821482158216826CE1678341305105A3
:1006000051F4B5016A5B7F4FDB016D917C916817F6
:1006100079076CF03FC04230510561F4B5016A5B67
:100620007F4FDB016D917C916817790734F067810A
:10063000606E67834230510551F4B5016A5B7F4FAC
:10064000DB016D917C91681779076CF054C04330E1
:10065000510501F5B5016A5B7F4FDB016D917C911E
:1006600068177907D4F0D1011C9211961C9211974A
:1006700012961C92129713961C92139714961C9222
:10068000149715961C92159716961C9216976FE163
:1006900017966C934330510551F4B5016A5B7F4F57
:1006A000DB016D917C91681779076CF059C044307B
:1006B000510509F5B5016A5B7F4FDB016D917C91B6
:1006C00068177907DCF06CE3AC81BD816C931196FF
:1006D0001C92119712961C92129713961C921397C4
:1006E00014961C92149715961C92159716961C92A8
:1006F000169717961C924430510551F4B5016A5B68
:100700007F4FDB016D917C91681779076CF045C0D4
:100710004530510529F5B5016A5B7F4FDB016D91CD
:100720007C9168177907FCF0AC81BD816C91606C9D
:100730006C9363E0D9016C9311961C9211971296F9
:100740001C92129713961C92139714961C9214974E
:1007500015961C92159716961C92169717961C9232
:100760004530510551F4B5016A5B7F4FDB016D9156
:100770007C91681779076CF033C04630510569F4F5
:10078000B5016A5B7F4FDB016D917C91681779073A
:100790003CF0D9016C916C616C934630510551F479
:1007A000B5016A5B7F4FDB016D917C91681779071A
:1007B0006CF037C04730510599F4B5016A5B7F4F43
:1007C000DB016D917C91681779076CF06681606838
:1007D0006683D10116966C9116976F6016966C938E
:1007E0004730510551F4B5016A5B7F4FDB016D91D4
:1007F0007C91681779076CF035C04830510589F451
:10080000B5016A5B7F4FDB016D917C9168177907B9
:100810005CF0AC81BD8112966C9112976C67129658
:100820006C934830510551F4B5016A5B7F4FDB0191
:100830006D917C91681779076CF035C0493051058E
:1008400089F4B5016A5B7F4FDB016D917C9168177C
:1008500079075CF0AC81BD8111966C9111976C6346
:1008600011966C934930510551F4B5016A5B7F4F85
:10087000DB016D917C91681779076CF03CC04A30C0
:10088000510589F4B5016A5B7F4FDB016D917C9165
:10089000681779075CF0AC81BD8113966C91139752
:1008A0006C6113966C934A30510551F4B5016A5B43
:1008B0007F4FDB016D917C91681779076CF043C025
:1008C0004B305105C1F4B5016A5B7F4FDB016D917F
:1008D0007C916817790794F0AC81BD8112966C9178
:1008E0001297606812966C93D90112966C911297C8
:1008F0006F6112966C934B30510551F4A5014A5B20
:100900005F4FDA014D915C91481759076CF01BC09D
:100910004C305105C1F4A5014A5B5F4FDA014D919E
:100920005C91481759077CF0AC81BD8111964C91C0
:100930001197406811964C93D90111964C911197DB
:100940004F6111964C93D501DA964D915C91DB97EE
:10095000DC96ED90FC90DD97B5016C5B7F4F8501D7
:10096000005B1F4F481759071CF4E816F906A4F559
:100970006501B2E4CB0ED11CD601CD90DC908C1574
:100980009D0534F0DB01CD90DC90C816D90624F526
:100990006501B6E4CB0ED11CD601CD90DC90C81613
:1009A000D90654F46501B8E4CB0ED11CD601CD9024
:1009B000DC90C816D90684F46501BEE4CB0ED11CC8
:1009C000D601CD90DC90C816D9067CF4D801CD9024
:1009D000DC908C159D054CF4D1011496DC90BD2D56
:1009E000BE61DB2ED1011496DC92D501DE96CD904E
:1009F000DC90DF97E816F9061CF4C816D906A4F4B3
:100A00007501BCE4EB0EF11CD701ED90FC90E816EB
:100A1000F906BCF47501BEE4EB0EF11CD701ED90B4
:100A2000FC90E816F9066CF0F580BF2DB068B58330
:100A3000D1011596FC90BF2DB360FB2ED101159608
:100A4000FC92D501A05CBF4F7D01C816D9062CF4DD
:100A5000CD90DC90C816D906A4F46501BAE4CB0E9B
:100A6000D11CD601CD90DC90C816D906BCF4650126
:100A7000BCE4CB0ED11CD601CD90DC90C816D906B3
:100A80006CF0D380BD2DB86FB383D1011396DC9089
:100A9000BD2DB360DB2ED1011396DC92D701ED9012
:100AA000FC90E816F90634F4DB01ED90FC90E816B2
:100AB000F906A4F47501BAE4EB0EF11CD701ED9030
:100AC000FC90E816F90674F07501B6E4EB0EF11C23
:100AD000D701ED90FC90E816F90624F4F480BF2DC0
:100AE000BC6FB483DB016D917C916817790764F466
:100AF000B5016A5B7F4FDB016D917C9168177907C7
:100B00001CF065816C6365834817590764F4B5016F
:100B10006A5B7F4FDB016D917C91681779071CF050
:100B200066816C636683D8016D917C918617970707
:100B30009CF4B5016A5B7F4FDB016D917C91681776
:100B400079073CF4D10115966C911597686115965B
:100B50006C93481759077CF0AC81BD8113964C917A
:100B60001397406813964C93D90113964C911397A1
:100B70004F6113964C934C01B3E38B1A910897FE87
:100B800002C0812C912C9C012F5F3F4F3D832C8311
:100B900037FD08C0293031053CF0A8E0B0E0BD8346
:100BA000AC8302C01D821C829C01265031093F8308
:100BB0002E8337FD08C0293031053CF0A8E0B0E0B5
:100BC000BF83AE8302C01F821E827C01BEE0EB1A8F
:100BD000F108F7FC08C029E0E216F10434F028E03F
:100BE000E22EF12C02C0E12CF12C6C0135E1C31A8C
:100BF000D108D7FC08C0A9E0CA16D10434F008E037
:100C0000C02ED12C02C0C12CD12C2C01BDE14B1A1D
:100C1000510857FC08C029E04216510434F018E08E
:100C2000412E512C02C0412C512C1C0134E2231ABC
:100C3000310837FC08C0A9E02A16310434F0B8E0C6
:100C40002B2E312C02C0212C312C8C9797FD06C005
:100C5000893091052CF088E090E002C080E090E0BF
:100C600023E0880C991C2A95E1F78A0C9B1CBFECA9
:100C70008B0E911CD4010C912081022B11961C919A
:100C800011972181122B12963C9112972281232BCE
:100C900013964C9113973381342B14965C911497CF
:100CA0004481452B15966C9115975581562B1696B8
:100CB0007C9116976681672B17967C907781772AAF
:100CC00073E0880F991F7A95E1F78A0D9B1D89556E
:100CD0009E4FDC017C91072B11967C911197172B6D
:100CE00012967C911297272B13967C911397372B92
:100CF00014967C911497472B15967C911597572B3A
:100D000016967C911697672B17967C91772A00830D
:100D100011832283338344835583668377828C8156
:100D20009D81E3E0880F991FEA95E1F78A0D9B1DED
:100D3000FC01E153FF4FFD83EC834501FEE58F0E7F
:100D4000911CAC81BD819C91F4018081982B1196FE
:100D50007C9111978181872B1296EC91D401129688
:100D60007C91E72BAC81BD811396FC91D401139645
:100D70007C91F72BAC81BD8114966C90D4011496B4
:100D80007C91672A6982AC81BD8115966C90D401F3
:100D900015967C91672A6A82AC81BD8116966C900B
:100DA000D40116967C91672A6B82AC81BD8117961F
:100DB0006C90D40117967C917629AE81BF81AA0FE1
:100DC000BB1FAA0FBB1FAA0FBB1FAA0DBB1DA95E8D
:100DD000BE4F6C90962911966C90119786291296A9
:100DE0006C901297E629EC831396EC911397FE2BE7
:100DF000FE8314966C901497E9816E2A1596FC91E7
:100E00001597EA81EF2BEA831696FC911697EB81F2
:100E1000FE2BF9831796AC917A2BD4019C931196F3
:100E20008C931197EC811296EC931297FE81139696
:100E3000FC93139714966C9214978A8115968C9351
:100E40001597998116969C93169717967C931797EA
:100E500083E0EE0CFF1C8A95E1F7EA0CFB1CF7011E
:100E6000E95EFE4F5096BD83AC83E0808C91E82A0A
:100E7000F18011968C911197F82A928112968C919B
:100E80001297982B9983938113968C911397982B93
:100E90009A83748114968C911497782B958115966A
:100EA0008C911597982B668016968C9116978629AB
:100EB00067801796EC916E2AF601A3E0EE0FFF1FF4
:100EC000AA95E1F7EA0DFB1DE15AFE4FD080ED280F
:100ED000D180FD28D280B981BD29D380AA81AD29D6
:100EE000D4807D29D5809D29D6808D29E7816E2AE1
:100EF000EC81FD81E082F182B283A38374839583C8
:100F000086836782B3E0440C551CBA95E1F74A0C1E
:100F10005B1CF201E15AFE4F650186E6C80ED11C4A
:100F2000E080D6018C91E82AF18011968C9111977E
:100F3000F82A928112968C911297982B998393811B
:100F400013968C911397492E482A748114968C918C
:100F50001497782B958115968C911597982B668010
:100F600016968C911697862967801796EC916E2AB3
:100F7000F101A3E0EE0FFF1FAA95E1F7EA0DFB1DBB
:100F8000E955FE4F5080E5285180F5285280B981FF
:100F9000B5295380A42DA5295480752955809529FC
:100FA00056808529E7816E2AF601E082F182B283BC
:100FB000A3837483958386836782D501D096ED9051
:100FC000FC90D197772DC5010E949401F501E2A80C
:100FD000F3A8D4010C9111961C91119712962C91A3
:100FE000129713963C91139714964C91149715965B
:100FF0005C91159716966C91169717967C91C50182
:101000000E949401F501E4A8F5A8D6010C9111966F
:101010001C91119712962C91129713963C9113974D
:1010200014964C91149715965C91159716966C91A1
:10103000169717967C91C5010E949401F501E6A8C8
:10104000F7A8AC81BD810C9111961C911197129655
:101050002C91129713963C91139714964C911497D8
:1010600015965C91159716966C91169717967C912C
:10107000C5010E94940127960FB6F894DEBF0FBEFB
:10108000CDBFDF91CF911F910F91FF90EF90DF9037
:10109000CF90BF90AF909F908F907F906F905F9018
:1010A0004F903F902F9008958F929F92AF92BF9252
:1010B000CF92DF92EF92FF920F931F93CF93DF9324
:1010C000F894C0913C02D0913D020E94E60A6B0167
:1010D0007C0152E0852E912CA12CB12C0E94E60AB5
:1010E000DC01CB018C199D09AE09BF09883E9340F4
:1010F000A105B10598F328EEC20E23E0D21EE11C33
:10110000F11C8A9489288A288B2829F0812C912C1B
:1011100054018394E3CF81E0888B0E948C006C871C
:101120007D878E879F878A890E94510A7C018989E1
:101130000E94510AEE0CFF1CE82AF92A08A119A105
:10114000000F111F000F111F0E291F290D3011054F
:1011500019F00230110589F48C89FE01882319F0F9
:10116000EC5AFF4F02C0EE5AFF4F808191810196E9
:1011700091838083CE010E943D020E30110519F04B
:101180000130110589F48C89FE01882319F0EC5A8D
:10119000FF4F02C0EE5AFF4F8081918101979183EA
:1011A0008083CE010E943D02F9A2E8A27894DF91EB
:1011B000CF911F910F91FF90EF90DF90CF90BF9054
:1011C000AF909F908F900895FF920F931F93CF93AE
:1011D000DF93C0E0D0E0082F10E0B8010C2E02C071
:1011E000759567950A94E2F76170809131020E94CB
:1011F0007A0AF090300261E08F2D0E947A0A60E056
:101200008F2D0E947A0A2196C830D10531F7DF91DF
:10121000CF911F910F91FF9008958F929F92AF925F
:10122000BF92FF920F931F93CF93DF93F090310201
:1012300060E08F2D0E94AA0A00E010E0C0E0812C3F
:10124000912C540183948F2D0E94510A892B61F0B7
:10125000D501C401002E04C0880F991FAA1FBB1F0F
:101260000A94D2F7C82B0CC0B501A401002E04C00B
:10127000440F551F661F771F0A94D2F74095C42369
:10128000D091300261E08D2F0E947A0A60E08D2FAC
:101290000E947A0A0F5F1F4F08301105A1F68C2FAC
:1012A000DF91CF911F910F91FF90BF90AF909F90D2
:1012B0008F90089560E0809132020E947A0A8BE05C
:1012C00090E00197F1F70895CF93DF93C091320238
:1012D00060E08C2F0E947A0A61E08C2F0E94AA0A9B
:1012E000D091300260E08D2F0E947A0A61E08D2F4C
:1012F0000E94AA0A61E0809131020E94AA0A61E07C
:101300008C2F0E947A0A8BE090E00197F1F7DF9131
:10131000CF9108958230D8F4E82FF0E0EE0FFF1F50
:10132000E050FF4F24E538E031832083813041F0E5
:10133000809169008C7F816080936900E89A0895AC
:1013400080916900837F846080936900E99A0895A1
:101350000895833081F028F4813099F08230A1F033
:1013600008958730A9F08830B9F08430D1F48091A5
:1013700080008F7D03C0809180008F7780938000F4
:10138000089584B58F7702C084B58F7D84BD08959C
:101390008091B0008F7703C08091B0008F7D8093E3
:1013A000B0000895CF93DF93C82FD0E080910A0357
:1013B00090910B03C817D9072CF4BE0184EB92E07F
:1013C0000E94690180910A0390910B03C817D90705
:1013D0003CF421E04CE0BE0184EB92E00E94E2008C
:1013E00080910A0390910B03C817D9074CF42FE0A2
:1013F0004AE0BE0184EB92E0DF91CF910C94E200D1
:10140000DF91CF9108951F920F920FB60F92112482
:101410002F933F934F935F936F937F938F939F93FC
:10142000AF93BF93EF93FF93E0910201F09103011B
:101430000995FF91EF91BF91AF919F918F917F910E
:101440006F915F914F913F912F910F900FBE0F9031
:101450001F9018951F920F920FB60F9211242F9381
:101460003F934F935F936F937F938F939F93AF932C
:10147000BF93EF93FF93E0910001F0910101099573
:10148000FF91EF91BF91AF919F918F917F916F915C
:101490005F914F913F912F910F900FBE0F901F9032
:1014A0001895CF93DF93282F30E0F901E255FF4FD5
:1014B0008491F901E656FF4FD491F901EA57FF4FA5
:1014C000C491CC2391F081110E94A909EC2FF0E086
:1014D000EE0FFF1FE458FF4FA591B491EC91ED235F
:1014E00081E090E021F480E002C080E090E0DF91B4
:1014F000CF9108951F93CF93DF93282F30E0F90108
:10150000E255FF4F8491F901E656FF4FD491F9015E
:10151000EA57FF4FC491CC23C9F0162F81110E94C6
:10152000A909EC2FF0E0EE0FFF1FEE58FF4FA59139
:10153000B4918FB7F894111105C09C91ED2FE095EF
:10154000E92302C0EC91ED2BEC938FBFDF91CF919B
:101550001F910895CF93DF9390E0FC01E656FF4F73
:101560002491FC01EA57FF4F8491882361F190E0B8
:10157000880F991FFC01E859FF4FC591D491FC01D8
:10158000EE58FF4FA591B491611109C09FB7F8942F
:101590008881209582238883EC912E230BC06230B2
:1015A00061F49FB7F8943881822F809583238883D4
:1015B000EC912E2B2C939FBF06C08FB7F894E88137
:1015C0002E2B28838FBFDF91CF9108953FB7F894DA
:1015D0008091380290913902A0913A02B0913B0279
:1015E00026B5A89B05C02F3F19F00196A11DB11D7E
:1015F0003FBFBA2FA92F982F8827820F911DA11DB9
:10160000B11DBC01CD0142E0660F771F881F991FF5
:101610004A95D1F70895CF93DF9388EE93E0A0E049
:10162000B0E080933E0290933F02A0934002B093BB
:101630004102109242021092430210924402109210
:10164000450280ED97E0A0E0B0E0809346029093E1
:101650004702A0934802B093490210924A021092A6
:101660004B0210924C0210924D0210924E0283E0F7
:1016700080934F0282E08093500284E08093510275
:1016800081E08093520288E090E0A0E0B0E0809397
:10169000530290935402A0935502B09356021092B5
:1016A0005702109258021092590210925A02109248
:1016B0005B02A1E0B0E0B0935D02A0935C021092E7
:1016C0005F0210925E02C7E0D0E0D0936102C09347
:1016D000600246E050E0509363024093620285E06E
:1016E00090E0909365028093640224E030E03093B0
:1016F00067022093660269E070E07093690260936C
:1017000068026AE070E070936B0260936A026BE0BB
:1017100070E070936D0260936C0263E070E0709310
:101720006F0260936E02E2E0F0E0F0937102E093EA
:101730007002B0937302A09372021092750210921D
:101740007402F0937702E0937602709379026093CB
:10175000780268E070E070937B0260937A026DE03B
:1017600070E070937D0260937C0262E170E07093A0
:101770007F0260937E0267E170E070938102609364
:1017800080026CE170E0709383026093820261E2F8
:1017900070E0709385026093840266E270E070935B
:1017A0008702609386026BE270E070938902609317
:1017B000880260E370E070938B0260938A0265E3B5
:1017C00070E070938D0260938C026AE370E0709316
:1017D0008F0260938E02909391028093900262E355
:1017E00070E07093930260939202109294021092B0
:1017F00095021092960210929702109298021092FF
:10180000990210929A0210929B0210929C021092DE
:101810009D0210929E0210929F021092A0021092BE
:10182000A1021092A2021092A3021092A40210929E
:10183000A5021092A6021092A7021092A80210927E
:10184000A9021092AA021092AB021092AC0210925E
:10185000AD021092AE021092AF021092B00210923E
:10186000B1021092B2021092B302D0930503C0935A
:101870000403909307038093060350930903409356
:10188000080330930B0320930A0361E087E00E9472
:10189000AA0A61E0809106030E94AA0A61E0809191
:1018A00008030E94AA0A61E0809108030E947A0A54
:1018B000D0930503C0930403E4ECF2E0119283E0BB
:1018C000E430F807D9F7C0E0D0E080910A039091A6
:1018D0000B03C817D907E4F520E04FE0BE0184EB05
:1018E00092E00E94E200D7FD0EC080910A03909121
:1018F0000B03C817D9073CF427E04BE0BE0184EB8B
:1019000092E00E94E20020E049E0BE0184EB92E018
:101910000E94E200D7FD1AC080910A0390910B0348
:10192000C817D9072CF4BE0184EB92E00E9469012C
:1019300080910A0390910B03C817D9073CF420E06B
:101940004CE0BE0184EB92E00E94E2002196BDCF04
:101950008091680290916A0220916C022093320279
:10196000909331028093300288E4E4E0F1E0ADE04E
:10197000B3E001900D928A95E1F788E4ECE4F1E0A0
:10198000A5E5B3E001900D928A95E1F788E4E4E9DA
:10199000F1E0ADE9B3E001900D928A95E1F788E4BA
:1019A000ECEDF1E0A5EEB3E001900D928A95E1F740
:1019B000DF91CF910895CF93DF93CDB7DEB76E97C8
:1019C0000FB6F894DEBF0FBECDBF789484B58260A9
:1019D00084BD84B5816084BD85B5826085BD85B5D3
:1019E000816085BD80916E00816080936E00109251
:1019F00081008091810082608093810080918100CC
:101A0000816080938100809180008160809380005C
:101A10008091B10084608093B1008091B0008160BA
:101A20008093B00080917A00846080937A008091E6
:101A30007A00826080937A0080917A00816080933E
:101A40007A0080917A00806880937A001092C100B9
:101A50008EE392E090933D0280933C0280E00E94EE
:101A6000D20981E00E94D20982E00E94D20983E07B
:101A70000E94D20962E080914F020E94AA0A62E0AD
:101A8000809150020E94AA0A62E0809151020E9455
:101A9000AA0A80914F02823021F0833021F08FEF2B
:101AA00003C080E001C081E00E948A098091500259
:101AB000823021F0833021F08FEF03C080E001C03D
:101AC00081E00E948A0994E6292E312C9E012F5F25
:101AD0003F4F398B288B285F2D8F80914E028823B2
:101AE00009F4F9C00E948C0000914A0210914B0247
:101AF00020914C0230914D02DC01CB01801B910BF7
:101B0000A20BB30B009146021091470220914802AC
:101B100030914902081719072A073B0708F492C1B8
:101B2000DAC04B895C89452B09F08BC2CF01B1012A
:101B30000E944910892B09F47CC28EE691E0A0E056
:101B4000B0E0081B190B2A0B3B0B24013501401A8E
:101B5000510A620A730ACF01B1010E9449109C0127
:101B6000CF0160E971E00E944910E4E2F2E010E088
:101B7000113009F46BC2408150E060E070E044161F
:101B800055066606770608F06EC20E9464098FE863
:101B90000E94E4080E940D09082F0E945A090E9421
:101BA00064098EE80E94E408802F8F770E94E40881
:101BB0000E945A090E9464098FE80E94E4080E946A
:101BC0000D098E8F0E945A098E8D87FD82C0C70134
:101BD000B6012CE330E040E050E00E945D10F62EAC
:101BE0006D897E898F89988D2CE330E040E050E04C
:101BF0000E945D10062F698D7A8D8B8D9C8D28E15A
:101C000030E040E050E00E945D10462F21E0210FBF
:101C100031E0340D1AE08F2D612F0E943D1050E10C
:101C2000859F900D11249983802F0E943D10E0E143
:101C30008E9F900D11249A83842F0E943D10F0E115
:101C40008F9F900D11249B83832F0E943D1030E1C4
:101C5000839F900D11249C83822F0E943D1040E1B0
:101C6000849F900D11249D83C501B4016C5F7F4F4B
:101C70008F4F9F4F27E030E040E050E00E945D1022
:101C80006F5F6E838A898E51612F0E943D1050E1F3
:101C9000859F900D11249F8380E888870E946409A6
:101CA0008EEB0E94E4088E010F5F1F4FF8018191B7
:101CB0008F010E94E408FD8DF013F8CF0E945A09AD
:101CC0000E9464098FE80E94E4080E940D090E94A6
:101CD0005A0910924E0280914E02811162C00E94F8
:101CE0008C000091420210914302209144023091F5
:101CF0004502DC01CB01801B910BA20BB30B0091C1
:101D00003E0210913F02209140023091410208179B
:101D100019072A073B0708F044C00E948C00609313
:101D200042027093430280934402909345020E94C2
:101D300064098FEB0E94E4088E010F5F1F4F0E9421
:101D40000D09F80181938F01FD8DF013F8CF0E94EA
:101D50005A099A818B81282F2695269526952670DB
:101D6000322F330F330F230F8F70820F282F30E065
:101D70003093910220939002892F869586958695BF
:101D80008E70282F220F220F820F9F70980F892F9D
:101D900090E090939302809392028EE392E00E94EF
:101DA0003D02809151020E94510A8C0180915C0297
:101DB00090915D020817190751F00E948C00609302
:101DC0005702709358028093590290935A020E94CE
:101DD0008C00C0905702D0905802E0905902F090C9
:101DE0005A02DC01CB018C199D09AE09BF09C090D4
:101DF0005302D0905402E0905502F0905602C8165B
:101E0000D906EA06FB0690F40115110569F48091E4
:101E10005B0281110BC08091520291E0892780936F
:101E2000520290935B0202C010925B0210935D021B
:101E300000935C0280E090E0892B09F44ECE0E9472
:101E4000000041CEC0909002D0909202EF85AE2F5C
:101E5000B0E020E833E341EE51E00E948E102B0108
:101E60003C0122EB37E0FD0100E911E0C901825B92
:101E700097408E179F07DCF4C90183709927892B3F
:101E800099F4C901B1010E944910892B31F4C901AB
:101E9000B8010E944910892B39F440E8440E41E50D
:101EA000541E41E0641E711C2F5F3F4FDFCF8E84B4
:101EB000912CEE54F84FCF01B1010E9449107C01E2
:101EC000CF0160E971E00E9449105C0101E010E07F
:101ED000E370FF27081519052CF50230110581F470
:101EE000309771F4E114F10419F4A114B10441F430
:101EF00050E8450E5BE3551E56E2651E711C0FC08F
:101F0000D801AD5DBD4FAC91B0E020E831E541E0D6
:101F100050E00E948E10460E571E681E791E0F5FFD
:101F20001F4FD8CF2C2D30E0A0E1BEE00E947F10E3
:101F30004B015C012D2D30E0ACE3B0E00E947F103E
:101F400075016401C60ED71EE81EF91E87E3C80E90
:101F5000D11CE11CF11CAD85B0E0119720E831E502
:101F600041E050E00E949910C60ED71EE81EF91EEF
:101F7000C40CD51CE61CF71CC701B6012CE330E0ED
:101F800040E050E00E945D102D8B3E8B4F8B588FB0
:101F9000CA01B9012CE330E040E050E00E945D103E
:101FA000298F3A8F4B8F5C8FCA01B90128E130E04D
:101FB00040E050E00E945D1049015A0100E010E04D
:101FC00098011A8A80E9682E772473944A89E42F4D
:101FD000F0E0EE54F84FAF01437055275C8B4B8B0C
:101FE000452B89F4CF01B1010E944910892B31F4AE
:101FF000CF01B3010E944910892B29F48EE691E0AC
:10200000A0E0B0E004C08DE691E0A0E0B0E0080FF1
:10201000191F2A1F3B1FD901C801AA27BB278816F1
:102020009906AA06BB0608F47CCD9A899F5F9A8B15
:10203000CDCFCF0160E971E00E944910892B09F4EE
:102040007CCD8DE691E0A0E0B0E07BCD4B895C8952
:10205000452B39F42115310511F4009711F44DE1A8
:102060008BCD4CE189CD441A550A660A770A1F5F69
:1020700031961C3009F07CCD88CD991B79E004C0E5
:10208000991F961708F0961B881F7A95C9F78095B7
:10209000089597FB072E16F4009407D077FD09D01A
:1020A0000E94BF1007FC05D03EF4909581959F4F8C
:1020B0000895709561957F4F0895A1E21A2EAA1B8D
:1020C000BB1BFD010DC0AA1FBB1FEE1FFF1FA217E8
:1020D000B307E407F50720F0A21BB30BE40BF50BE5
:1020E000661F771F881F991F1A9469F7609570956E
:1020F000809590959B01AC01BD01CF010895A29FF1
:10210000B001B39FC001A39F700D811D1124911DCB
:10211000B29F700D811D1124911D08950E947F10A2
:10212000A59F900DB49F900DA49F800D911D11242B
:102130000895B7FF0C948E100E948E10821B930B93
:10214000089597FB10F8169400080F93083098F044
:102150000850232F342F452F562F672F782F892F84
:10216000902DF4CF0594979587957795679557951A
:102170004795379527950A95AAF70F910895AA1BB9
:10218000BB1B51E107C0AA1FBB1FA617B70710F062
:10219000A61BB70B881F991F5A95A9F78095909594
:1021A000BC01CD010895EE0FFF1F0590F491E02DC5
:0621B0000994F894FFCF32
:1021B600A809A809000000000000000001000000B6
:1021C60000000000030000000000000007000000FF
:1021D600000000000F000000000000001F000000CB
:1021E600000000003F000000000000007F0000002B
:1021F60000000000FF0000000000000000000000DA
:102206000000000080000000000000008080000048
:102216000000000080808000000000008080808038
:102226000000000080808080800000008080808028
:102236008080000080808080808080008080808018
:102246008080808000000000000000000000000088
:102256000000008000000000000000C00000000038
:10226600000000E000000000000000F00000000098
:10227600000000F800000000000000FC0000000064
:10228600000000FE00000000000000FF000000004B
:102296000000000000000000000000010000000037
:1022A6000000010100000000000101010000000023
:1022B600010101010000000101010101000001010D
:1022C60001010101000101010101010101010101F9
:1022D600010101011F1C1F1E1F1E1F1F1E1F1E1F87
:00000001FF
