:100000000C9462000C94E50A0C94BE0A0C948A00CD
:100010000C948A000C948A000C948A000C948A0038
:100020000C948A000C948A000C948A000C948A0028
:100030000C948A000C948A000C948A000C948A0018
:100040000C94DB0B0C948A000C948A000C948A00AC
:100050000C948A000C948A000C948A000C948A00F8
:100060000C948A000C948A000000000024002700F1
:100070002A0000000000250028002B0000000000DE
:1000800023002600290004040404040404040202DA
:100090000202020203030303030301020408102007
:1000A0004080010204081020010204081020000012
:1000B0000008000201000003040700000000000027
:1000C0000000080D11241FBECFEFD8E0DEBFCDBF6A
:1000D00012E0A0E0B1E0E0E0F1E202C005900D9294
:1000E000A033B107D9F724E0A0E3B2E001C01D922C
:1000F000AC31B207E1F710E0C2E6D0E004C02197CE
:10010000FE010E947810C136D107C9F70E94B20ED5
:100110000C947E100C9400002F923F924F925F92AD
:100120006F927F928F929F92AF92BF92CF92DF9207
:10013000EF92FF920F931F93CF93DF93CDB7DEB76C
:1001400028970FB6F894DEBF0FBECDBFB02EA22EFB
:10015000932E842E752E662E572E970143E0220F84
:10016000331F4A95E1F72B583F4FA901480F591FFC
:1001700058874F8344244394C12CD12CFC01E5546F
:10018000FF4FFC83EB839C012B593F4F3E832D8314
:100190002B2D312F4A2D592D682D772D862D952DFC
:1001A0000C2D0E944810212C312C422F50E05A83F4
:1001B0004983F7FC2DC0EB81FC8180819181E81699
:1001C000F90634F580E890E0022C02C095958795F9
:1001D0000A94E2F729813A81022C02C035952795CD
:1001E0000A94E2F720FF05C0EF81F8859081892B02
:1001F00005C08095EF81F885908189238083EF8108
:10020000F8852081442DB7018D819E810E94250CA7
:10021000FFEF2F1A3F0A28E02216310451F638E08A
:10022000C30ED11C4F8158854F5F5F4F58874F8356
:10023000439459E04512ACCF28960FB6F894DEBF30
:100240000FBECDBFDF91CF911F910F91FF90EF9027
:10025000DF90CF90BF90AF909F908F907F906F90E6
:100260005F904F903F902F9008952F923F924F9222
:100270005F926F927F928F929F92AF92BF92CF9236
:10028000DF92EF92FF920F931F93CF93DF93CDB73F
:10029000DEB727970FB6F894DEBF0FBECDBF5C0167
:1002A000DC01AD5BBF4FFC01EF5BFF4F8D919C917B
:1002B000119797FF0AC0CC9611969C938E938081DC
:1002C0009181019791838083F1CF8D919C911197BA
:1002D0008C33910554F0CC9711969C938E9380812A
:1002E0009181019691838083F0CF20813181121614
:1002F00013062CF0245F3F4F31832083F6CF4081DB
:1003000051814D3051052CF04C505109518340839F
:10031000F6CF15012DE4220E311CD1011C9211964D
:100320001C92119712961C92129713961C92139777
:1003300014961C92149715961C92159716961C925B
:10034000169717961C92F501EB5AFF4FFD83EC832D
:1003500010821182128213821482158216821782F1
:100360009501235A3F4FD9011C9211961C92119767
:1003700012961C92129713961C92139714961C9225
:10038000149715961C92159716961C921697179609
:100390001C927097108211826CE662831382148221
:1003A0001582168217824C30510549F4D501D59635
:1003B0006D917C91D6976817790764F03BC0413006
:1003C000510591F4D501D5966D917C91D69768171A
:1003D00079076CF0108211826CE6628313821482BA
:1003E000158216826CE167834130510549F4D501CD
:1003F000D5966D917C91D6976817790764F03CC0CB
:100400004230510559F4D501D5966D917C91D6971E
:100410006817790734F06781606E67834230510551
:1004200049F4D501D5966D917C91D69768177907D7
:1004300064F051C043305105F9F4D501D5966D9162
:100440007C91D69768177907D4F0D1011C92119648
:100450001C92119712961C92129713961C92139746
:1004600014961C92149715961C92159716961C922A
:1004700016976FE117966C934330510549F4D501F7
:10048000D5966D917C91D6976817790764F056C020
:100490004430510501F5D501D5966D917C91D697E3
:1004A00068177907DCF06CE3AC81BD816C93119621
:1004B0001C92119712961C92129713961C921397E6
:1004C00014961C92149715961C92159716961C92CA
:1004D000169717961C924430510549F4D501D596CC
:1004E0006D917C91D6976817790764F042C04530CA
:1004F000510521F5D501D5966D917C91D697681758
:100500007907FCF0AC81BD816C91606C6C9363E009
:10051000D9016C9311961C92119712961C92129706
:1005200013961C92139714961C92149715961C926E
:10053000159716961C92169717961C9245305105E2
:1005400049F4D501D5966D917C91D69768177907B6
:1005500064F030C04630510561F4D501D5966D91F7
:100560007C91D697681779073CF0D9016C916C6142
:100570006C934630510549F4D501D5966D917C9127
:10058000D6976817790764F034C04730510591F465
:10059000D501D5966D917C91D697681779076CF047
:1005A000668160686683D10116966C9116976F60BC
:1005B00016966C934730510549F4D501D5966D9147
:1005C0007C91D6976817790764F032C0483051059E
:1005D00081F4D501D5966D917C91D69768177907EE
:1005E0005CF0AC81BD8112966C9112976C6712968B
:1005F0006C934830510549F4D501D5966D917C91A5
:10060000D6976817790764F032C04930510581F4F4
:10061000D501D5966D917C91D697681779075CF0D6
:10062000AC81BD8111966C9111976C6311966C939E
:100630004930510549F4D501D5966D917C91D697F5
:100640006817790764F039C04A30510581F4D50143
:10065000D5966D917C91D697681779075CF0AC813F
:10066000BD8113966C9113976C6113966C934A300D
:10067000510549F4D501D5966D917C91D6976817AF
:10068000790764F040C04B305105B9F4D501D596D7
:100690006D917C91D6976817790794F0AC81BD81F4
:1006A00012966C911297606812966C93D90112960B
:1006B0006C9112976F6112966C934B30510549F40F
:1006C000D501D5964D915C91D6974817590764F09E
:1006D0001AC04C305105B9F4D501D5964D915C91B5
:1006E000D697481759077CF0AC81BD8111964C9183
:1006F0001197406811964C93D90111964C9111971E
:100700004F6111964C93D50199964D915C919A97B2
:100710009B96ED90FC909C97D3966D917C91D4978D
:100720008501015C1F4F481759071CF4E816F906AC
:1007300044F5D501D196CD90DC90D2978C159D05CE
:100740001CF068177907ECF4D501D596CD90DC90B4
:10075000D697C816D9063CF4D796CD90DC90D8979A
:10076000C816D90674F4D501DD96CD90DC90DE97DD
:10077000C816D9067CF4D801CD90DC908C159D0567
:100780004CF4D1011496DC90BD2DBE61DB2ED1015D
:100790001496DC92D5019D96CD90DC909E97E8163C
:1007A000F9061CF4C816D9067CF4D501DB96ED9049
:1007B000FC90DC97E816F906A4F4DD96ED90FC9029
:1007C000DE97E816F9066CF0F580BF2DB068B583AA
:1007D000D1011596FC90BF2DB360FB2ED10115966B
:1007E000FC92D5019F96ED90FC90D097C816D90643
:1007F0001CF4E816F9067CF4D501D996CD90DC906E
:10080000DA97C816D906A4F4DB96CD90DC90DC9775
:10081000C816D9066CF0D380BD2DB86FB383D10153
:100820001396DC90BD2DB360DB2ED1011396DC92C4
:10083000E816F9061CF4681779077CF4D501D996F7
:10084000ED90FC90DA97E816F9065CF0D596ED90FD
:10085000FC90D697E816F90624F4F480BF2DBC6FFF
:10086000B483681779075CF4D501D5966D917C91B6
:10087000D697681779071CF065816C636583481704
:1008800059075CF4D501D5966D917C91D697681780
:1008900079071CF066816C636683D8016D917C9149
:1008A0008617970794F4D501D5966D917C91D697CC
:1008B000681779073CF4D10115966C91159768611A
:1008C00015966C93481759077CF0AC81BD8113963F
:1008D0004C911397406813964C93D90113964C9101
:1008E00013974F6113964C934C01B3E38B1A910805
:1008F00097FE02C0812C912C9C012F5F3F4F3D83BE
:100900002C8337FD08C0293031053CF0A8E0B0E069
:10091000BD83AC8302C01D821C829C01265031091C
:100920003F832E8337FD08C0293031053CF0A8E015
:10093000B0E0BF83AE8302C01F821E827C01BEE096
:10094000EB1AF108F7FC08C029E0E216F10434F0D4
:1009500028E0E22EF12C02C0E12CF12C6C0135E1F3
:10096000C31AD108D7FC08C0A9E0CA16D10434F0D4
:1009700008E0C02ED12C02C0C12CD12C2C01BDE12D
:100980004B1A510857FC08C029E04216510434F0B4
:1009900018E0412E512C02C0412C512C1C0134E294
:1009A000231A310837FC08C0A9E02A16310434F0B4
:1009B000B8E02B2E312C02C0212C312C8C9797FDC6
:1009C00006C0893091052CF088E090E002C080E0FC
:1009D00090E023E0880C991C2A95E1F78A0C9B1C77
:1009E000BEEB8B0E911CD4010C912081022B119631
:1009F0001C9111972181122B12963C911297228102
:100A0000232B13964C9113973381342B14965C91BE
:100A100014974481452B15966C9115975581562B4B
:100A200016967C9116976681672B17967C90778136
:100A3000772A73E0880F991F7A95E1F78A0D9B1D3D
:100A40008A569E4FDC017C91072B11967C91119761
:100A5000172B12967C911297272B13967C91139744
:100A6000372B14967C911497472B15967C911597EC
:100A7000572B16967C911697672B17967C91772AA1
:100A80000083118322833383448355836683778273
:100A90008C819D81E3E0880F991FEA95E1F78A0D2B
:100AA0009B1DFC01E254FF4FFD83EC834501FDE4F7
:100AB0008F0E911CAC81BD819C91F4018081982B9B
:100AC00011967C9111978181872B1296EC91D4011C
:100AD00012967C91E72BAC81BD811396FC91D401D9
:100AE00013967C91F72BAC81BD8114966C90D40148
:100AF00014967C91672A6982AC81BD8115966C90B1
:100B0000D40115967C91672A6A82AC81BD811696C4
:100B10006C90D40116967C91672A6B82AC81BD8162
:100B200017966C90D40117967C917629AE81BF817F
:100B3000AA0FBB1FAA0FBB1FAA0FBB1FAA0DBB1D6D
:100B4000AA5FBE4F6C90962911966C9011978629DA
:100B500012966C901297E629EC831396EC911397FA
:100B6000FE2BFE8314966C901497E9816E2A1596DD
:100B7000FC911597EA81EF2BEA831696FC91169764
:100B8000EB81FE2BF9831796AC917A2BD4019C93C1
:100B900011968C931197EC811296EC931297FE812B
:100BA0001396FC93139714966C9214978A8115965A
:100BB0008C931597998116969C93169717967C930C
:100BC000179783E0EE0CFF1C8A95E1F7EA0CFB1CFB
:100BD000F701EA5FFE4F5096BD83AC83E0808C91B5
:100BE000E82AF18011968C911197F82A9281129639
:100BF0008C911297982B9983938113968C911397CC
:100C0000982B9A83748114968C911497782B9581E4
:100C100015968C911597982B668016968C91169741
:100C2000862967801796EC916E2AF601A3E0EE0FF5
:100C3000FF1FAA95E1F7EA0DFB1DE25BFE4FD08096
:100C4000ED28D180FD28D280B981BD29D380AA8129
:100C5000AD29D4807D29D5809D29D6808D29E78135
:100C60006E2AEC81FD81E082F182B283A3837483DA
:100C7000958386836782B3E0440C551CBA95E1F7EF
:100C80004A0C5B1CF201E25BFE4F650185E5C80E74
:100C9000D11CE080D6018C91E82AF18011968C91CC
:100CA0001197F82A928112968C911297982B99831A
:100CB000938113968C911397492E482A7481149628
:100CC0008C911497782B958115968C911597982B6C
:100CD000668016968C911697862967801796EC91F8
:100CE0006E2AF101A3E0EE0FFF1FAA95E1F7EA0DCE
:100CF000FB1DEA56FE4F5080E5285180F5285280B2
:100D0000B981B5295380A42DA52954807529558012
:100D1000952956808529E7816E2AF601E082F182C5
:100D2000B283A3837483958386836782D5015F969C
:100D3000ED90FC909097772DC5010E948C00F501F5
:100D4000E1A0F2A0D4010C9111961C91119712967A
:100D50002C91129713963C91139714964C911497DB
:100D600015965C91159716966C91169717967C912F
:100D7000C5010E948C00F501E3A0F4A0D6010C91FE
:100D800011961C91119712962C91129713963C91E3
:100D9000139714964C91149715965C911597169687
:100DA0006C91169717967C91C5010E948C00F501F5
:100DB000E5A0F6A0AC81BD810C9111961C91119714
:100DC00012962C91129713963C91139714964C916E
:100DD000149715965C91159716966C911697179621
:100DE0007C91C5010E948C0027960FB6F894DEBF57
:100DF0000FBECDBFDF91CF911F910F91FF90EF906C
:100E0000DF90CF90BF90AF909F908F907F906F902A
:100E10005F904F903F902F9008950F931F93CF9323
:100E2000DF93C0E0D0E0082F10E0B8010C2E02C024
:100E3000759567950A94E2F76170809131020E947E
:100E4000350B61E0809130020E94350B60E08091AB
:100E500030020E94350B2196C830D10531F7DF9161
:100E6000CF911F910F910895CF92DF92EF92FF9251
:100E70000F931F93CF9360E0809131020E94650B26
:100E800000E010E0C0E0C12CD12C7601C394809129
:100E900031020E940C0B892B61F0D701C601002E94
:100EA00004C0880F991FAA1FBB1F0A94D2F7C82B32
:100EB0000CC0D701C601002E04C0880F991FAA1FBD
:100EC000BB1F0A94D2F78095C82361E0809130025D
:100ED0000E94350B60E0809130020E94350B0F5F5D
:100EE0001F4F0830110599F68C2FCF911F910F914C
:100EF000FF90EF90DF90CF90089560E080913202F4
:100F00000E94350B8BE090E00197F1F7089560E0C7
:100F1000809132020E94350B61E0809132020E9482
:100F2000650B60E0809130020E94350B61E080919A
:100F300030020E94650B61E0809131020E94650BD6
:100F400061E0809132020E94350B8BE090E00197C6
:100F5000F1F708953F924F925F926F927F928F9236
:100F60009F92AF92BF92CF92DF92EF92FF920F9338
:100F70001F93CF93DF93CDB7DEB76C970FB6F8947E
:100F8000DEBF0FBECDBFFC01EF5BFF4F90803296FE
:100F90008080EF85AE2FB0E020E833E341EE51E0F2
:100FA0000E9433102B013C0122EB37E0FD0104E6E7
:100FB00010E060E9E62EFF24F394C901825B9740BC
:100FC0008E179F07DCF4C90183709927892B99F448
:100FD000C901B8010E94EE0F892B31F4C901B70194
:100FE0000E94EE0F892B39F440E8440E41E5541E6F
:100FF00041E0641E711C2F5F3F4FDFCFEE84F12C68
:10100000EE54F84FCF0164E670E00E94EE0F6C01E1
:10101000CF0160E971E00E94EE0F5C0101E010E099
:10102000E370FF270E151F052CF50230110581F422
:10103000309771F4C114D10419F4A114B10441F42E
:1010400050E8450E5BE3551E56E2651E711C0FC04D
:10105000D801AD5FBE4FAC91B0E020E831E541E092
:1010600050E00E943310460E571E681E791E0F5F17
:101070001F4FD8CF292D30E0A0E1BEE00E94241000
:101080006B017C01282D30E0ACE3B0E00E9424101D
:10109000C60ED71EE81EF91E87E3C80ED11CE11C40
:1010A000F11CAD85B0E0119720E831E541E050E05A
:1010B0000E943E10C60ED71EE81EF91ED701C601BB
:1010C000840D951DA61DB71D888B998BAA8BBB8B94
:1010D0002CE3C22ED12CE12CF12CBC01CD01A701B7
:1010E00096010E9402102C8B3D8B4E8B5F8BCA01A8
:1010F000B901A70196010E940210288F398F4A8FEB
:101100005B8FCA01B90128E130E040E050E00E9465
:10111000021049015A0100E010E09801312C44E628
:10112000C42ED12C50E9652E77247394E32DF0E082
:10113000EE54F84F7F0193E0E922FF24E114F1041B
:1011400089F4CF01B6010E94EE0F892B31F4CF0153
:10115000B3010E94EE0F892B29F48EE691E0A0E006
:10116000B0E004C08DE691E0A0E0B0E0080F191FE8
:101170002A1F3B1FD901C801AA27BB278816990639
:10118000AA06BB0610F03394D1CFE114F10499F410
:10119000CF0164E670E00E94EE0F892B39F4CF0195
:1011A00060E971E00E94EE0F892B29F48EE691E050
:1011B000A0E0B0E004C08DE691E0A0E0B0E0081B44
:1011C000190B2A0B3B0B24013501401A510A620A04
:1011D000730ACF0164E670E00E94EE0F9C01CF011C
:1011E00060E971E00E94EE0FE4E0F1E010E0113000
:1011F00049F4E114F10451F42115310529F4009763
:1012000029F402C0408103C04DE101C04CE150E02F
:1012100060E070E0441655066606770640F0441A12
:10122000550A660A770A1F5F31961C3001F70E9443
:1012300087078FE80E940D070E943407082F0E943D
:101240007D070E9487078EE80E940D07802F8F7709
:101250000E940D070E947D070E9487078FE80E9469
:101260000D070E9434078C8F0E947D078C8D87FDAF
:101270009EC08CE3C82ED12CE12CF12C6889798991
:101280008A899B89A70196010E940210062F6C890A
:101290007D898E899F89A70196010E940210F62EF2
:1012A000688D798D8A8D9B8D28E130E040E050E09B
:1012B0000E940210462F31E0310F21E0240D1AE088
:1012C000802F612F0E94E20FA0E18A9F900D1124D0
:1012D00099838F2D0E94E20FB0E18B9F900D112416
:1012E0009A83842F0E94E20FE0E18E9F900D1124DB
:1012F0009B83822F0E94E20FF0E18F9F900D1124BB
:101300009C83832F0E94E20F20E1829F900D112485
:101310009D83C501B4016C5F7F4F8F4F9F4F27E0C6
:1013200030E040E050E00E9402106F5F6E8382EE7A
:10133000830D612F0E94E20F40E1849F900D1124E4
:101340009F8380E888870E9487078EEB0E940D07A5
:101350008E010F5F1F4F98E0F92EF00ED8018D918E
:101360008D010E940D07F012F9CF0E947D070E94A7
:1013700087078FE80E940D070E9434076C960FB60E
:10138000F894DEBF0FBECDBFDF91CF911F910F91BB
:10139000FF90EF90DF90CF90BF90AF909F908F9095
:1013A0007F906F905F904F903F900C947D076C966C
:1013B0000FB6F894DEBF0FBECDBFDF91CF911F9166
:1013C0000F91FF90EF90DF90CF90BF90AF909F90E4
:1013D0008F907F906F905F904F903F900895EF9225
:1013E000FF920F931F93CF93DF93F894C091330232
:1013F000D091340262E070E080E090E00E94A10BA6
:1014000089850E940C0B7C0188850E940C0BEE0CD8
:10141000FF1CE82AF92A0D851E85000F111F000FF9
:10142000111F0E291F290D30110519F00230110569
:10143000A1F48B85FE01882319F0ED5BFF4F02C0FC
:10144000EF5BFF4F80819181019691838083CE0174
:101450000E94AA07CE010E9435010E30110519F035
:1014600001301105A1F48B85FE01882319F0ED5B95
:10147000FF4F02C0EF5BFF4F808191810197918305
:101480008083CE010E94AA07CE010E943501FE860C
:10149000ED867894DF91CF911F910F91FF90EF909F
:1014A00008958230D8F4E82FF0E0EE0FFF1FE050EF
:1014B000FF4F2FEE39E031832083813041F080915E
:1014C00069008C7F816080936900E89A089580911B
:1014D0006900837F846080936900E99A0895089584
:1014E000833081F028F4813099F08230A1F00895A2
:1014F0008730A9F08830B9F08430D1F48091800031
:101500008F7D03C0809180008F7780938000089545
:1015100084B58F7702C084B58F7D84BD0895809196
:10152000B0008F7703C08091B0008F7D8093B000B2
:1015300008953FB7F8948091360290913702A091B8
:101540003802B091390226B5A89B05C02F3F19F08B
:101550000196A11DB11D3FBFBA2FA92F982F882733
:10156000820F911DA11DB11DBC01CD0142E0660F8E
:10157000771F881F991F4A95D1F708951F920F92E0
:101580000FB60F9211242F933F934F935F936F9356
:101590007F938F939F93AF93BF93EF93FF93E091CC
:1015A0000201F09103010995FF91EF91BF91AF9175
:1015B0009F918F917F916F915F914F913F912F916B
:1015C0000F900FBE0F901F9018951F920F920FB69D
:1015D0000F9211242F933F934F935F936F937F93B9
:1015E0008F939F93AF93BF93EF93FF93E09100018D
:1015F000F09101010995FF91EF91BF91AF919F91FA
:101600008F917F916F915F914F913F912F910F90AB
:101610000FBE0F901F901895CF93DF93282F30E0C7
:10162000F901E255FF4F8491F901E656FF4FD4913D
:10163000F901EA57FF4FC491CC2391F081110E9428
:10164000700AEC2FF0E0EE0FFF1FE458FF4FA5915A
:10165000B491EC91ED2381E090E021F480E002C0B0
:1016600080E090E0DF91CF9108951F93CF93DF93B7
:10167000282F30E0F901E255FF4F8491F901E65639
:10168000FF4FD491F901EA57FF4FC491CC23C9F021
:10169000162F81110E94700AEC2FF0E0EE0FFF1F51
:1016A000EE58FF4FA591B4918FB7F894111105C072
:1016B0009C91ED2FE095E92302C0EC91ED2BEC938A
:1016C0008FBFDF91CF911F910895CF93DF9390E06B
:1016D000FC01E656FF4F2491FC01EA57FF4F84912D
:1016E000882361F190E0880F991FFC01E859FF4FB2
:1016F000C591D491FC01EE58FF4FA591B4916111B1
:1017000009C09FB7F8948881209582238883EC9143
:101710002E230BC0623061F49FB7F8943881822F7A
:10172000809583238883EC912E2B2C939FBF06C03A
:101730008FB7F894E8812E2B28838FBFDF91CF914C
:1017400008958F929F92AF92BF92CF92DF92EF92C5
:10175000FF926B017C010E94990A4B015C01C1144C
:10176000D104E104F104F1F00E94990ADC01CB01FB
:1017700088199909AA09BB09883E9340A105B105BA
:1017800070F321E0C21AD108E108F10888EE880E52
:1017900083E0981EA11CB11CC114D104E104F10422
:1017A00019F7DDCFFF90EF90DF90CF90BF90AF9013
:1017B0009F908F9008951F920F920FB60F92112451
:1017C0002F933F938F939F93AF93BF9380913A0250
:1017D00090913B02A0913C02B0913D0230913502C4
:1017E00023E0230F2D3720F40196A11DB11D05C064
:1017F00026E8230F0296A11DB11D20933502809388
:101800003A0290933B02A0933C02B0933D02809138
:10181000360290913702A0913802B09139020196B8
:10182000A11DB11D8093360290933702A093380218
:10183000B0933902BF91AF919F918F913F912F91BA
:101840000F900FBE0F901F9018952F923F924F92BE
:101850005F926F927F928F929F92AF92BF92CF9240
:10186000DF92EF92FF920F931F93CF93DF9300D0FD
:10187000CDB7DEB78C0149832A83660F771FF80145
:10188000EA5AFF4FE080F180EE0CFF1CF801CF0117
:10189000801B910B8E159F0514F41192F8CF89814E
:1018A000F801E60FF71F81838A818083580184E560
:1018B000A80EB11C60E0F50180810E94350BE00E9E
:1018C000F11E4801F2E58F0E911C380180E5680E8B
:1018D000711CC701801B910B1816190624F5F7011E
:1018E000C2907F01F4013080F301208087E0482E10
:1018F000512CD12CB601042C02C0759567950A9421
:10190000E2F761707727822D0E94350B61E0832D0D
:101910000E94350B60E0832D0E94350BF1E04F1AD9
:10192000510840F7D6CF61E0F50180810F900F900C
:10193000DF91CF911F910F91FF90EF90DF90CF90AB
:10194000BF90AF909F908F907F906F905F904F90DF
:101950003F902F900C94350BCF92DF92EF92FF9235
:101960000F931F93CF93DF938C017B016B0183E077
:10197000CC0CDD1C8A95E1F7C1E0D0E0FE01EC0D56
:10198000FD1DE00FF11F178620E04C2FB701C801A5
:101990000E94250C2196C930D10581F7DF91CF91A6
:1019A0001F910F91FF90EF90DF90CF900895CF930C
:1019B000DF93C82FD0E08091F9029091FA02C81706
:1019C000D9072CF4BE0183EA92E00E94AC0C80910E
:1019D000F9029091FA02C817D9073CF421E04CE0D3
:1019E000BE0183EA92E00E94250C8091F902909159
:1019F000FA02C817D9074CF42FE04AE0BE0183EA87
:101A000092E0DF91CF910C94250CDF91CF91089556
:101A10000F931F93CF93DF9388EE93E0A0E0B0E0A5
:101A200080933E0290933F02A0934002B093410204
:101A30001092420210924302109244021092450208
:101A400082E08093460283E08093470284E08093A3
:101A5000480281E08093490210924A0210924C029F
:101A600010924B02C7E0D0E0D0934E02C0934D02DB
:101A700046E050E05093500240934F0285E090E0E2
:101A8000909352028093510224E030E0309354024C
:101A90002093530268E070E0709356026093550201
:101AA000EAE0F0E0F0935802E0935702EBE0F0E058
:101AB000F0935A02E0935902ECE0F0E0F0935C02FC
:101AC000E0935B02E3E0F0E0F0935E02E0935D02FE
:101AD000A2E0B0E0B0936002A0935F0201E010E0EA
:101AE00010936202009361021092640210926302EA
:101AF000B0936602A0936502F0936802E0936702D8
:101B000070936A02609369026DE070E070936C02FA
:101B100060936B0262E170E070936E0260936D02FD
:101B200067E170E07093700260936F026CE170E0A7
:101B3000709372026093710261E270E070937402BC
:101B40006093730266E270E07093760260937502B0
:101B50006BE270E0709378026093770260E370E06C
:101B600070937A026093790265E370E070937C026F
:101B700060937B026AE370E070937E0260937D0263
:101B80009093800280937F0262E370E07093820200
:101B90006093810210928302109284021092850257
:101BA0001092860210928702109288021092890287
:101BB00010928A0210928B0210928C0210928D0267
:101BC00010928E0210928F02109290021092910247
:101BD0001092920210929302109294021092950227
:101BE0001092960210929702109298021092990207
:101BF00010929A0210929B0210929C0210929D02E7
:101C000010929E0210929F021092A0021092A102C6
:101C10001092A202D093F402C093F3029093F602C2
:101C20008093F5025093F8024093F7023093FA0242
:101C30002093F90261E087E00E94650B61E08091EA
:101C4000F5020E94650B61E08091F7020E94650B2E
:101C500061E08091F7020E94350BD093F402C093AB
:101C6000F302E3EBF2E0119282E0E33FF807D9F7E9
:101C7000C0E0D0E08091F9029091FA02C817D9072C
:101C8000E4F520E04FE0BE0183EA92E00E94250CDB
:101C9000D7FD0EC08091F9029091FA02C817D907BA
:101CA0003CF427E04BE0BE0183EA92E00E94250C61
:101CB00020E049E0BE0183EA92E00E94250CD7FDB6
:101CC0001AC08091F9029091FA02C817D9072CF432
:101CD000BE0183EA92E00E94AC0C8091F9029091DF
:101CE000FA02C817D9073CF420E04CE0BE0183EAB1
:101CF00092E00E94250C2196BDCF809157029091D1
:101D0000590220915B02209332029093310280931A
:101D1000300288E4E0E1F1E0ACEFB2E001900D9236
:101D20008A95E1F788E4E8E5F1E0A4E4B3E0019006
:101D30000D928A95E1F788E4E0EAF1E0ACE8B3E0DF
:101D400001900D928A95E1F788E4E8EEF1E0A4EDC8
:101D5000B3E001900D928A95E1F7DF91CF911F9149
:101D60000F910895CF93DF93CDB7DEB728970FB6C5
:101D7000F894DEBF0FBECDBF789484B5826084BD79
:101D800084B5816084BD85B5826085BD85B581607F
:101D900085BD80916E00816080936E0010928100FD
:101DA00080918100826080938100809181008160B8
:101DB0008093810080918000816080938000809179
:101DC000B10084608093B1008091B0008160809305
:101DD000B00080917A00846080937A0080917A00CC
:101DE000826080937A0080917A00816080937A008B
:101DF00080917A00806880937A001092C1008EE30F
:101E000092E0909334028093330280E00E94D70CDA
:101E100081E00E94D70C82E00E94D70C83E00E94F0
:101E2000D70C62E0809146020E94650B62E08091CF
:101E300047020E94650B62E0809148020E94650B98
:101E400080914602823021F0833021F08FEF03C071
:101E500080E001C081E00E94510A809147028230F7
:101E600021F0833021F08FEF03C080E001C081E0DA
:101E70000E94510A61E0809155020E94350B61E099
:101E8000809155020E94650B8E010F5F1F4F88E005
:101E9000D82ED00ECC24C39490E0E92E90E0F92EF9
:101EA000BB24B3942FB7F89480913A0290913B02EF
:101EB000A0913C02B0913D022FBF4091420250914F
:101EC00043026091440270914502841B950BA60B5E
:101ED000B70B40913E0250913F02609140027091D9
:101EE0004102481759076A077B0708F04AC02FB715
:101EF000F89480913A0290913B02A0913C02B091FB
:101F00003D022FBF8093420290934302A09344026C
:101F1000B09345020E9487078FEB0E940D0748018E
:101F20000E943407F40181934F01DE12F9CF0E9421
:101F30007D079A818B81282F2695269526952670D8
:101F4000322F330F330F230F8F70820F282F30E083
:101F50003093800220937F02892F869586958695FF
:101F60008E70282F220F220F820F9F70980F892FBB
:101F700090E090938202809381028EE392E00E942F
:101F80003501809148020E940C0B892B91F48091BD
:101F90004A02811110C0809149028C258093490228
:101FA000B0924A026EE170E080E090E00E94A10BE6
:101FB00002C010924A02E114F10409F473CF0E94A6
:101FC000000070CF991B79E004C0991F961708F0A4
:101FD000961B881F7A95C9F78095089597FB072E61
:101FE00016F4009407D077FD09D00E94641007FC16
:101FF00005D03EF4909581959F4F08957095619519
:102000007F4F0895A1E21A2EAA1BBB1BFD010DC034
:10201000AA1FBB1FEE1FFF1FA217B307E407F50798
:1020200020F0A21BB30BE40BF50B661F771F881F74
:10203000991F1A9469F760957095809590959B010A
:10204000AC01BD01CF010895A29FB001B39FC001B3
:10205000A39F700D811D1124911DB29F700D811DD4
:102060001124911D08950E942410A59F900DB49FE6
:10207000900DA49F800D911D11240895B7FF0C941D
:1020800033100E943310821B930B089597FB10F8B6
:10209000169400080F93083098F00850232F342F1F
:1020A000452F562F672F782F892F902DF4CF059429
:1020B0009795879577956795579547953795279580
:1020C0000A95AAF70F910895AA1BBB1B51E107C0FF
:1020D000AA1FBB1FA617B70710F0A61BB70B881FB8
:1020E000991F5A95A9F780959095BC01CD01089547
:1020F000EE0FFF1F0590F491E02D0994F894FFCFA7
:102100006F0A6F0A1F1C1F1E1F1E1F1F1E1F1E1F70
:1021100000000000000000000100000000000000BE
:1021200003000000000000000700000000000000A5
:102130000F000000000000001F0000000000000071
:102140003F000000000000007F00000000000000D1
:10215000FF00000000000000000000000000000080
:1021600080000000000000008080000000000000EF
:1021700080808000000000008080808000000000DF
:1021800080808080800000008080808080800000CF
:1021900080808080808080008080808080808080BF
:1021A00000000000000000000000000000000080AF
:1021B00000000000000000C000000000000000E07F
:1021C00000000000000000F000000000000000F827
:1021D00000000000000000FC00000000000000FE05
:1021E00000000000000000FF0000000000000000F0
:1021F00000000000000000010000000000000101DC
:1022000000000000000101010000000001010101C7
:1022100000000001010101010000010101010101B3
:10222000000101010101010101010101010101019F
:00000001FF
