:100000000C9462000C9416090C94EF080C948A006E
:100010000C948A000C948A000C948A000C948A0038
:100020000C948A000C948A000C948A000C948A0028
:100030000C948A000C948A000C948A000C948A0018
:100040000C943D090C948A000C948A000C948A004C
:100050000C948A000C948A000C948A000C948A00F8
:100060000C948A000C948A000000000024002700F1
:100070002A0000000000250028002B0000000000DE
:1000800023002600290004040404040404040202DA
:100090000202020203030303030301020408102007
:1000A0004080010204081020010204081020000012
:1000B0000008000201000003040700000000000027
:1000C00000002D0A11241FBECFEFD8E0DEBFCDBF48
:1000D00012E0A0E0B1E0EAE7F7E102C005900D927E
:1000E000A432B107D9F723E0A4E2B2E001C01D9227
:1000F000AA3FB207E1F710E0C2E6D0E004C02197C2
:10010000FE010E94B50BC136D107C9F70E948709CD
:100110000C94BB0B0C9400008230C8F4E82FF0E084
:10012000EE0FFF1FE050FF4F71836083813041F07D
:10013000809169008C7F816080936900E89A0895BE
:1001400080916900837F846080936900E99A0895B3
:100150000895833081F028F4813099F08230A1F045
:1001600008958730A9F08830B9F08430D1F48091B7
:1001700080008F7D03C0809180008F778093800006
:10018000089584B58F7702C084B58F7D84BD0895AE
:100190008091B0008F7703C08091B0008F7D8093F5
:1001A000B0000895CF93DF93282F30E0F901E25596
:1001B000FF4F8491F901E656FF4FD491F901EA57B8
:1001C000FF4FC491CC2391F081110E94A900EC2F24
:1001D000F0E0EE0FFF1FE458FF4FA591B491EC91B2
:1001E000ED2381E090E021F480E002C080E090E027
:1001F000DF91CF9108951F93CF93DF93282F30E0A5
:10020000F901E255FF4F8491F901E656FF4FD49171
:10021000F901EA57FF4FC491CC23C9F0162F811181
:100220000E94A900EC2FF0E0EE0FFF1FEE58FF4FE9
:10023000A591B4918FB7F894111105C09C91ED2F41
:10024000E095E92302C0EC91ED2BEC938FBFDF9199
:10025000CF911F910895CF93DF9390E0FC01E65674
:10026000FF4F2491FC01EA57FF4F8491882361F1ED
:1002700090E0880F991FFC01E859FF4FC591D49178
:10028000FC01EE58FF4FA591B491611109C09FB7D1
:10029000F8948881209582238883EC912E230BC0CB
:1002A000623061F49FB7F8943881822F8095832360
:1002B0008883EC912E2B2C939FBF06C08FB7F894A8
:1002C000E8812E2B28838FBFDF91CF9108953FB710
:1002D000F8948091290290912A02A0912B02B0916A
:1002E0002C0226B5A89B05C02F3F19F00196A11D31
:1002F000B11D3FBFBA2FA92F982F8827820F911DBC
:10030000A11DB11DBC01CD0142E0660F771F881F02
:10031000991F4A95D1F708958F929F92AF92BF92FD
:10032000CF92DF92EF92FF926B017C010E946701F6
:100330004B015C01C114D104E104F104F1F00E940D
:100340006701DC01CB0188199909AA09BB09883E1C
:100350009340A105B10570F321E0C21AD108E1086C
:10036000F10888EE880E83E0981EA11CB11CC11410
:10037000D104E104F10419F7DDCFFF90EF90DF9095
:10038000CF90BF90AF909F908F9008952F923F9203
:100390004F925F926F927F928F929F92AF92BF9295
:1003A000CF92DF92EF92FF920F931F93CF93DF9341
:1003B00000D000D0CDB7DEB79C838B83CB969A83D9
:1003C0008983AB81BC81DB961C92DB97FC01118297
:1003D000128213821482158216821782AD5BBF4F80
:1003E0001C9211961C92119712961C9212971396BA
:1003F0001C92139714961C92149715961C9215979D
:1004000016961C92169717961C9217972B813C8173
:10041000255B3F4FF90110821182128213821482F0
:10042000158216821782EB81FC8113AA14AA8CE62E
:1004300085AB16AA17AA10AE11AE12AE47A550A9E9
:1004400081A992A94C30510531F463A174A16817B8
:1004500079079CF079C041305105F1F4EB81FC81C2
:1004600063A174A16817790744F4EB81FC8163A14F
:1004700074A168177907D4F067C0EB81FC8113AAD7
:1004800014AA6CE665AB16AA17AA10AE11AE6CE101
:1004900062AF4130510549F34230510541F5EB81DE
:1004A000FC8163A174A16817790744F0EB81FC819A
:1004B00062AD606E62AF42305105C9F4EB81FC81E0
:1004C00063A174A1681779070CF061C0EB81FC810E
:1004D00013AEE981FA81118212821382148215828D
:1004E00016826FE167834330510571F50AC04330CE
:1004F000510551F5EB81FC8163A174A1681779075F
:100500002CF7EB81FC8163A174A1681779070CF0CB
:1005100058C06CE36C9311961C92119712961C9222
:10052000129713961C92139714961C921497159673
:100530001C92159716961C92169717961C92179751
:100540004430510521F50AC04430510501F5EB81D5
:10055000FC8163A174A168177907DCF6EB81FC814B
:1005600063A174A1681779070CF04BC06C91606CA3
:100570006C9363E0F901608311821282138214820A
:1005800015821682178245305105D9F40AC04530CC
:100590005105B9F4EB81FC8163A174A16817790757
:1005A0002CF7EB81FC8163A174A1681779070CF02B
:1005B00045C0F90160816C6160834630510509F5E1
:1005C0000AC046305105E9F4EB81FC8163A174A1B6
:1005D0006817790774F7EB81FC8163A174A1681730
:1005E00079070CF048C0EB81FC8161AD606861AFB8
:1005F000E981FA8166816F60668347305105F1F4C5
:100600000AC047305105D1F4EB81FC8163A174A18C
:100610006817790744F7EB81FC8163A174A168171F
:1006200079070CF045C012966C9112976C67129680
:100630006C93129748305105F1F40AC048305105C7
:10064000D1F4EB81FC8163A174A1681779075CF791
:10065000EB81FC8163A174A1681779070CF048C095
:1006600011966C9111976C6311966C9311974930A8
:100670005105F1F40AC049305105D1F4EB81FC81F8
:1006800063A174A1681779075CF7EB81FC8163A112
:1006900074A1681779070CF048C013966C911397F2
:1006A0006C6113966C9313974A30510509F50AC093
:1006B0004A305105E9F4EB81FC8163A174A168170C
:1006C00079075CF7EB81FC8163A174A16817790756
:1006D000B4F512966C911297606812966C9312970B
:1006E000F90162816F6162834B305105F1F40AC0F8
:1006F0004B305105D1F4EB81FC8163A174A16817E3
:1007000079073CF7EB81FC8143A154A148175907B5
:10071000B4F411964C911197406811964C9311972F
:10072000F90141814F6141830AC04C30510539F4D0
:10073000EB81FC8143A154A14817590754F7EB8181
:10074000FC816789708DC18CD28C41A152A105A515
:1007500016A5681779071CF4C816D90604F5EB81AD
:10076000FC81E78CF0A0E816F9061CF4481759073D
:10077000B4F4EB81FC81E3A0F4A0E816F9062CF4B4
:10078000E5A0F6A0E816F90654F4EB81FC81E3A499
:10079000F4A4E816F90664F4081719074CF0E98187
:1007A000FA81F480FF2DFE61FF2EE981FA81F48247
:1007B000EB81FC81E38CF48CC816D9061CF4E81696
:1007C000F90664F4EB81FC81C1A4D2A4C816D90651
:1007D000BCF4C3A4D4A4C816D90694F0EB81FC8160
:1007E000D0ACFD2DF068DF2EEB81FC81D0AEE9812D
:1007F000FA81D580FD2DF360DF2EE981FA81D58263
:10080000EB81FC81C58CD68CE816F9061CF4C81661
:10081000D90664F4EB81FC81E7A0F0A4E816F906A0
:10082000BCF4E1A4F2A4E816F90694F0EB81FC8193
:10083000F6A8FF2DF86FFF2EEB81FC81F6AAE98167
:10084000FA81F380FF2DF360FF2EE981FA81F382B4
:10085000C816D9061CF44817590764F4EB81FC81CB
:10086000E7A0F0A48E159F0574F4E3A0F4A08E1504
:100870009F054CF0EB81FC81F7A8FF2DFC6FFF2E4C
:10088000EB81FC81F7AA4817590754F4EB81FC81EE
:1008900043A154A1481759071CF040AD4C6340AF29
:1008A000009759F0EB81FC8143A154A148175907E7
:1008B0000CF41AC241AD4C6341AF081719071CF084
:1008C000681779075CF013964C911397406813965C
:1008D0004C931397F90143814F61438397FD05C002
:1008E000893091052CF46C0106C0C12CD12C03C0B9
:1008F00018E0C12ED12C7C01F8E0EF1AF108F7FCCA
:1009000008C029E0E216F10434F0F8E0EF2EF12CF3
:1009100002C0E12CF12C8C010F50110917FD06C00B
:10092000093011052CF008E010E002C000E010E0F2
:10093000BC016751710977FD06C0693071052CF063
:1009400068E070E002C060E070E0AC014E51510917
:1009500057FD06C0493051052CF048E050E002C078
:1009600040E050E09C012652310937FD06C0293095
:1009700031052CF028E030E002C020E030E05C01DE
:10098000EDE2AE1AB108B7FC08C0F9E0AF16B10449
:1009900034F0E8E0AE2EB12C02C0A12CB12CC597EA
:1009A00097FD06C0893091052CF088E090E002C0E8
:1009B00080E090E0E3E0CC0CDD1CEA95E1F7EB8110
:1009C000FC81CE0EDF1EFBEACF0ED11CF60180802B
:1009D000EB81FC8193A88928F6017180EB81FC8171
:1009E00094A89728F6016280EB81FC8175A876288F
:1009F000F6015380EB81FC8166A86528F6014480EE
:100A0000EB81FC8157A85428F6013580EB81FC81ED
:100A100040AC4328F6012680EB81FC8131AC3228C2
:100A2000F601C780EB81FC81D2ACDC28880F991FCE
:100A3000880F991F880F991F8E0F9F1F8D579E4FEC
:100A4000FC01C0808C28C1809C28C2807C28C38087
:100A50006C28C4805C28C5804C28C6803C288781CF
:100A6000D82AEB81FC8183AA94AA75AA66AA57AA00
:100A700040AE31AED2AE83E0EE0CFF1C8A95E1F7BA
:100A8000EE0EFF1EFBEAEF0EF11CF7018080EB81FA
:100A9000FC8183AD882AF7019180E981FA81818107
:100AA000982AF701C280E981FA818281C82AF70178
:100AB000D380E981FA818381D82AF7019481E98181
:100AC000FA818481982BF7017580E981FA8185810B
:100AD0008729F7016680E981FA8176807628F70117
:100AE000E780E981FA81F780FE28E3E0000F111F1B
:100AF000EA95E1F7EB81FC810E0F1F1F0D501F4F90
:100B0000F801E0808E28E1809E28E280CE28E380F4
:100B1000DE28E4809E29E5808E29E6807E281781E4
:100B20001F29EB81FC8183AEE981FA819182C28227
:100B3000D3829483858376821783F3E0660F771FD1
:100B4000FA95E1F78B819C81680F791F4B0193EF38
:100B5000890E911C8B819C81855B9F4FF401C08025
:100B6000FC016081C62AF401D180FC016181D62A92
:100B7000F401E280FC016281E62AF401F380FC01C9
:100B80006381F62AF4010481FC016481062BF401DF
:100B90001581FC016581162BF4017681FC016681CB
:100BA000762BF4019780FC0167816929E3E0440F0B
:100BB000551FEA95E1F7EB81FC814E0F5F1FFA01AB
:100BC000E55CFE4F4081C42A4181D42A4281E42A57
:100BD0004381F42A4481042B4581142B5681572BE1
:100BE0004781462BFC01C082D182E282F3820483DA
:100BF000158356834783F3E0220F331FFA95E1F7FD
:100C00008B819C81280F391FF901E55CFE4F7081B3
:100C10008C91782B618111968C911197682B528160
:100C200012968C911297582B438113968C9113979F
:100C3000482B348114968C911497382B2581159666
:100C40008C911597282B968116968C911697982B38
:100C5000E78117968C9117978E2B13E0AA0CBB1C7B
:100C60001A95E1F7EB81FC81EA0DFB1DED57FE4F74
:100C70001081712B1181612B1281512B1381412B1A
:100C80001481312B1581212B1681912BE7818E2B1D
:100C90007C9311966C93119712965C93129713960E
:100CA0004C93139714963C93149715962C93159781
:100CB00016969C93169717968C930F900F900F9003
:100CC0000F90DF91CF911F910F91FF90EF90DF90E8
:100CD000CF90BF90AF909F908F907F906F905F90DC
:100CE0004F903F902F900895E981FA8145814861A6
:100CF0004583E3CDFC0181A992A997FF09C0CC9659
:100D000092AB81AB87A590A9019790AB87A7F3CF52
:100D100081A992A98C3391054CF0CC9792AB81AB11
:100D200087A590A9019690AB87A7F2CF87A590A938
:100D300097FF04C00C9690AB87A7F8CF87A590A922
:100D40008D30910524F00C9790AB87A7F7CF0895CD
:100D50002F923F924F925F926F927F928F929F92CB
:100D6000AF92BF92CF92DF92EF92FF920F931F93B9
:100D7000CF93DF9300D0CDB7DEB78C0149832A83B0
:100D8000660F771FF801EA5AFF4FE080F180EE0C02
:100D9000FF1CF801CF01801B910B8E159F0514F4E9
:100DA0001192F8CF8981F801E60FF71F81838A81BC
:100DB0008083580184E5A80EB11C60E0F5018081B4
:100DC0000E94FB00E00EF11E4801F2E58F0E911C1F
:100DD000380180E5680E711CC701801B910B181645
:100DE000190624F5F701C2907F01F4013080F30168
:100DF000208087E0482E512CD12CB601042C02C053
:100E0000759567950A94E2F761707727822D0E94A5
:100E1000FB0061E0832D0E94FB0060E0832D0E94B7
:100E2000FB00F1E04F1A510840F7D6CF61E0F50121
:100E300080810F900F90DF91CF911F910F91FF90C4
:100E4000EF90DF90CF90BF90AF909F908F907F906A
:100E50006F905F904F903F902F900C94FB00CF923B
:100E6000DF92EF92FF920F931F93CF93DF938C014A
:100E70007B016B0183E0CC0CDD1C8A95E1F7C1E0BE
:100E8000D0E0FE01EC0DFD1DE00FF11F178620E004
:100E90004C2FB701C8010E94A8062196C930D10580
:100EA00081F7DF91CF911F910F91FF90EF90DF902D
:100EB000CF900895CF93DF93C82FD0E08091D802D0
:100EC0009091D902C817D9072CF4BE0182E892E0AC
:100ED0000E942F078091D8029091D902C817D90794
:100EE0003CF421E04CE0BE0182E892E00E94A806BA
:100EF0008091D8029091D902C817D9074CF42FE0FD
:100F00004AE0BE0182E892E0DF91CF910C94A806FE
:100F1000DF91CF9108952F923F924F925F926F92FF
:100F20007F928F929F92AF92BF92CF92DF92EF9279
:100F3000FF920F931F93CF93DF93CDB7DEB7289720
:100F40000FB6F894DEBF0FBECDBFB02EA22E932EEB
:100F5000842E752E662E572E970143E0220F331FE5
:100F60004A95E1F72D593F4FA901480F591F58875E
:100F70004F8344244394C12CD12CFC01E755FF4FEF
:100F8000FC83EB839C012D5A3F4F3E832D832B2DF9
:100F9000312F4A2D592D682D772D862D952D0C2D0D
:100FA0000E94990B212C312C422F50E05A83498307
:100FB000F7FC2DC0EB81FC8180819181E816F90658
:100FC00034F580E890E0022C02C0959587950A944C
:100FD000E2F729813A81022C02C0359527950A94BF
:100FE000E2F720FF05C0EF81F8859081892B05C0CD
:100FF0008095EF81F885908189238083EF81F88542
:101000002081442DB7018D819E810E94A806FFEFAB
:101010002F1A3F0A28E02216310451F638E0C30E99
:10102000D11C4F8158854F5F5F4F58874F83439442
:1010300059E04512ACCF28960FB6F894DEBF0FBE2C
:10104000CDBFDF91CF911F910F91FF90EF90DF9077
:10105000CF90BF90AF909F908F907F906F905F9058
:101060004F903F902F900895EF92FF920F931F9310
:10107000CF93DF93EC01EF84F8880BA91CA92DA96D
:101080003EA94FA958AD69AD7AAD0E948B07E9889A
:10109000FA88FE01FB960BAD1181228133814481D8
:1010A000558166817781CE010E948B07EB88FC8891
:1010B000FE01ED5BFF4F008111812281338144816C
:1010C000558166817781CE010E948B07ED88FE886D
:1010D000FE01E55BFF4F0081118122813381448154
:1010E000558166817781CE010E948B07DF91CF9178
:1010F0001F910F91FF90EF900895CF93DF9361E0E0
:1011000070E080E090E00E948C01C0912D02D091AF
:101110002E0289810E94D2002E81422F50E0841736
:10112000950709F181E082278E838823E1F08D8184
:10113000811119C08B81882331F089A99AA9019660
:101140009AAB89AB05C08FA598A9019698AB8FA7DC
:10115000CE010E947A06CE010E94C601CE01DF9127
:10116000CF910C943408DF91CF910895CF93DF9302
:1011700061E070E080E090E00E948C01C0912D025F
:10118000D0912E0288810E94D2002D81422F50E002
:101190008417950709F181E082278D838823E1F088
:1011A0008E81811119C08B81882331F089A99AA978
:1011B00001979AAB89AB05C08FA598A9019798AB09
:1011C0008FA7CE010E947A06CE010E94C601CE01F1
:1011D000DF91CF910C943408DF91CF9108951F9245
:1011E0000F920FB60F9211242F933F934F935F935B
:1011F0006F937F938F939F93AF93BF93EF93FF93DF
:10120000E0910201F09103010995FF91EF91BF91E7
:10121000AF919F918F917F916F915F914F913F918E
:101220002F910F900FBE0F901F9018951F920F9245
:101230000FB60F9211242F933F934F935F936F93A9
:101240007F938F939F93AF93BF93EF93FF93E0911F
:101250000001F09101010995FF91EF91BF91AF91CC
:101260009F918F917F916F915F914F913F912F91BE
:101270000F900FBE0F901F9018951F920F920FB6F0
:101280000F9211242F933F938F939F93AF93BF930C
:101290008091250290912602A0912702B091280208
:1012A0003091240223E0230F2D3720F40196A11D55
:1012B000B11D05C026E8230F0296A11DB11D209384
:1012C00024028093250290932602A0932702B093D4
:1012D00028028091290290912A02A0912B02B091BC
:1012E0002C020196A11DB11D8093290290932A0220
:1012F000A0932B02B0932C02BF91AF919F918F913D
:101300003F912F910F900FBE0F901F9018957894DA
:1013100084B5826084BD84B5816084BD85B58260FA
:1013200085BD85B5816085BD80916E0081608093AB
:101330006E00109281008091810082608093810014
:101340008091810081608093810080918000816024
:10135000809380008091B10084608093B10080917F
:10136000B00081608093B00080917A0084608093A7
:101370007A0080917A00826080937A0080917A006E
:10138000816080937A0080917A00806880937A00EF
:101390001092C1008FE292E090932E0280932D0272
:1013A00080E00E945A0781E00E945A0782E00E9472
:1013B0005A0783E00E945A0762E080912F020E9440
:1013C0002B0162E0809130020E942B0162E080914B
:1013D00031020E942B0180912F02823021F0833054
:1013E00021F08FEF03C080E001C081E066EB78E080
:1013F0000E948C0080913002823021F0833021F0F5
:101400008FEF03C080E001C081E06DE778E00E94CB
:101410008C00C1E000E010E0D1E0809131020E9438
:10142000D200892B91F480913302811110C08091F8
:1014300032028C2780933202D093330265E070E051
:1014400080E090E00E948C0102C0109233020115EE
:10145000110519F30E940000E0CFCF93DF9383E0E2
:1014600080932F0282E08093300284E080933102E7
:1014700081E0809332021092330210923402109273
:101480003502C7E0D0E0D0933702C093360246E081
:1014900050E0509339024093380285E090E09093F9
:1014A0003B0280933A0224E030E030933D022093E7
:1014B0003C0263E070E070933F0260933E02E2E022
:1014C000F0E0F0934102E0934002E1E0F0E0F093BD
:1014D0004302E0934202109245021092440270933C
:1014E000470260934602D0934902C09348026CE0E1
:1014F00070E070934B0260934A0261E170E0709378
:101500004D0260934C0267E170E070934F0260936C
:101510004E026BE170E0709351026093500260E202
:1015200070E0709353026093520265E270E0709332
:101530005502609354026AE270E070935702609320
:1015400056026FE270E0709359026093580265E3AF
:1015500070E070935B0260935A0269E370E07093ED
:101560005D0260935C0290935F0280935E0262E38F
:1015700070E07093610260936002109262021092B8
:101580006302109264021092650210926602109239
:101590006702109268021092690210926A02109219
:1015A0006B0210926C0210926D0210926E021092F9
:1015B0006F021092700210927102109272021092D9
:1015C00073021092740210927502109276021092B9
:1015D0007702109278021092790210927A02109299
:1015E0007B0210927C0210927D0210927E02109279
:1015F0007F021092800210928102D093D302C09396
:10160000D2029093D5028093D4025093D702409394
:10161000D6023093D9022093D80261E087E00E947D
:101620002B0161E08091D4020E942B0161E0809146
:10163000D6020E942B0161E08091D6020E94FB003D
:10164000D093D302C093D202E2E9F2E0119282E099
:10165000E23DF807D9F7C0E0D0E08091D802909140
:10166000D902C817D907E4F520E04FE0BE0182E8AF
:1016700092E00E94A806D7FD0EC08091D8029091FA
:10168000D902C817D9073CF427E04BE0BE0182E835
:1016900092E00E94A80620E049E0BE0182E892E0C4
:1016A0000E94A806D7FD1AC08091D8029091D90255
:1016B000C817D9072CF4BE0182E892E00E942F07D8
:1016C0008091D8029091D902C817D9073CF420E044
:1016D0004CE0BE0182E892E00E94A8062196BDCFB0
:1016E00088E4E4E0F1E0AAEDB2E001900D928A9581
:1016F000E1F788E4ECE4F1E0A2E2B3E001900D92BE
:101700008A95E1F788E4E4E9F1E0AAE6B3E0019024
:101710000D928A95E1F788E4ECEDF1E0A2EBB3E0FD
:1017200001900D928A95E1F7DF91CF91089597FB93
:1017300010F8169400080F93083098F00850232FE3
:10174000342F452F562F672F782F892F902DF4CFC8
:10175000059497958795779567955795479537950C
:1017600027950A95AAF70F910895EE0FFF1F059090
:0A177000F491E02D0994F894FFCFE6
:10177A00A800A8000000000000000000010000000E
:10178A000000000003000000000000000700000045
:10179A00000000000F000000000000001F00000011
:1017AA00000000003F000000000000007F00000071
:1017BA0000000000FF000000000000000000000020
:1017CA00000000008000000000000000808000008F
:1017DA00000000008080800000000000808080807F
:1017EA00000000008080808080000000808080806F
:1017FA00808000008080808080808000808080805F
:10180A0080808080000000000000000000000000CE
:10181A000000008000000000000000C0000000007E
:10182A00000000E000000000000000F000000000DE
:10183A00000000F800000000000000FC00000000AA
:10184A00000000FE00000000000000FF0000000091
:10185A00000000000000000000000001000000007D
:10186A000000010100000000000101010000000069
:10187A000101010100000001010101010000010153
:10188A00010101010001010101010101010101013F
:04189A000101010146
:00000001FF
